:020000020000FC
:040000000C94CA1E74
:080024001E7F1093050A1895D8
:040048009FB67AC025
:0E0050009FB65F0180904309EDB3F1E0099483
:04008800BF9A18956E
:1001400080900B09880C22F05F01EDB3F3E0099475
:0A015000839480920A099FBE18955F
:10016000EC9AEE9A39E03EBB31E1F5019FBE18955D
:10017000ED9AEE9A2EBAF5019FBE1895EC9AED9A7B
:10018000EE9A3EE23EBB33E0F5019FBE1895EE9A33
:10019000EF9AF5019FBE18952DBA30E03093FF7F9E
:1001A00032E03093FE7F1895832E869486948EBA23
:1001B000EF9A337009F0EC9AF5019FBE1895383F1D
:1001C00031F3353F69F220F4EE9AF5019FBE1895A0
:1001D000393F71F23A3F91F23B3FF1F248F42092FD
:1001E000117E30FB30E83FBB1EF02092177EFE9A56
:0601F000F5019FBE189509
:1002000030914409331580F2343FC8F62EBAED9A86
:10021000337009F0EC9AF5019FBE1895C22C20921C
:0A022000117E2DBAF5019FBE18955E
:1002400030914409332351F3EC9AF5019FBE189580
:1002600080904409EC2DF8E78192CE2E3A9509F45E
:080270002DBAF5019FBE18959F
:10028000809044098092087E2DBAF5019FBE189592
:1002A00080904409EEB3FEE78192EEBBE31708F0BD
:0802B0002DBAF5019FBE18955F
:1002C00080904409EEB3FDE78192EEBBEE2309F482
:0802D0002DBAF5019FBE18953F
:1002E00080904409EEB3FEE78192EEBB3A95E1F1CE
:0602F000F5019FBE189508
:1003000030914409332321F1EC9AF5019FBE1895F1
:1003200080904409EEB3FFE78192EEBB3A9509F461
:080330002DBAF5019FBE1895DE
:10034000809044098092317E2DBAF5019FBE1895A8
:100350005F01EEB3EC53FEE7808084AEE395E1F7F6
:100360002DBAF5019FBE18952DBA34E13093FF7F69
:0803700032E03093FE7F189586
:100400000091400900FB00EB0093620426F47F9A00
:1004100013E01093B70488951EF414E01093B7040A
:10042000009361040C94141AAEE2BEE75D9105E5F9
:1004300005276D910617D1F40AEA05277C91071765
:10044000A9F4A0E0B4E12DE9009102100270E1F7F7
:1004500024BF03E1009300105D936D937C9324BF50
:1004600001E000930010550F50930C090C94141ADE
:040470000C94481A86
:10056000EC9AEE9A39E03EBB31E1F5019FBE189559
:10057000ED9AEE9A2EBAF5019FBE1895EC9AED9A77
:10058000EE9A3EE23EBB33E0F5019FBE1895EE9A2F
:10059000EF9AF5019FBE18952DBA30E03093FF7F9A
:1005A00032E03093FE7F1895832E869486948EBA1F
:1005B000EF9A337009F0EC9AF5019FBE1895383F19
:1005C00031F3353F69F220F4EE9AF5019FBE18959C
:1005D000393F71F23A3F91F23B3FF1F248F42092F9
:1005E000117E30FB30E83FBB1EF02092177EFE9A52
:0605F000F5019FBE189505
:1006000030910D09331580F2343FC8F62EBAED9AB9
:10061000337009F0EC9AF5019FBE1895C22C209218
:0A062000117E2DBAF5019FBE18955A
:1006400030910D09332351F3EC9AF5019FBE1895B3
:1006600080900D09EC2DF8E78192CE2E3A9509F491
:080670002DBAF5019FBE18959B
:1006800080900D098092087E2DBAF5019FBE1895C5
:1006A00080900D09EEB3FEE78192EEBBE31708F0F0
:0806B0002DBAF5019FBE18955B
:1006C00080900D09EEB3FDE78192EEBBEE2309F4B5
:0806D0002DBAF5019FBE18953B
:1006E00080900D09EEB3FEE78192EEBB3A95E1F101
:0606F000F5019FBE189504
:1007000030910D09332321F1EC9AF5019FBE189524
:1007200080900D09EEB3FFE78192EEBB3A9509F494
:080730002DBAF5019FBE1895DA
:1007400080900D098092317E2DBAF5019FBE1895DB
:100750005F01EEB3EC53FEE7808084AEE395E1F7F2
:100760002DBAF5019FBE18952DBA34E13093FF7F65
:0807700032E03093FE7F189582
:10086C00C9E0DAE02982DA950881006C0883C9AF07
:10087C00FF99F8CDECB354A565A576A592819F7729
:10088C00078D07FB872F837031F416F483951BC0FB
:10089C00503031F483C016F0882753C0833079F080
:1008AC00703210F070527AC0072F06950295007EB8
:1008BC00702B6A9579F7813031F018F542C05917D1
:1008CC0049F371406BC02081722F237014E0121B0E
:1008DC00002721FD08E020FD06E061816F70600FAC
:1008EC0009F45FE7510F57FD5FE75F3739F0707C14
:1008FC0011F1A52F0FE777FDA0273BC072E061E057
:10090C004DC02081722F26952695237014E0121B62
:10091C00002721FD08E020FD06E0618162956F70E3
:10092C00600F29F0511B0AF45527951718F0592F11
:10093C0073E034C0707C41F1A52F0FE776FFA02740
:10094C0018C02081722F2295237014E0121B0027EF
:10095C0021FD08E020FD06E063816F70600F11F04F
:10096C00511B0AF45527707C79F0A52F0FE776FF01
:10097C00A027BBE70C91069F112DA0680C91069F38
:10098C00612F600D09F46395223010F023952360DC
:10099C00220F722F7295220F722B782B54A765A7FA
:1009AC0076A757A7EC5FEC72ECBBC0E1DFE7ECE39A
:1009BC0009910193099101930991019309910F7187
:1009CC001E851078012B0193C03290F3A2E3BFE790
:1009DC005CE39FE78D916D91C82FC695C871C45A81
:1009EC008295E82FE07FE325F5E08C70782F845C0E
:1009FC0009940000FC010B81061710F06D9AEAC0F7
:040A0C006D98E8C039
:100A2000FC0168710D8106FB4EF4138116271383B8
:0E0A3000178116271783138516271387D1C049
:100A4000FC010D8101FB4EF41381106413831781A7
:0C0A500010641783138510641387C2C064
:100A6000FC01E8940B81061708F06894038107F9EC
:100A70000383078107F90783038507F90387B0C05C
:100A8000FC010B8110891395019F138A148913951A
:0E0A9000019F178A108D1395019F138EA1C030
:100AA000FC010B81069F1694138A178A138E98C037
:100AC000FC010C81C72FCC0FC4581C810102000C03
:100AD000111C17FC1A941F8203810062038380C0DB
:100AE000FC010D811381000F32F410F460FD1064DD
:080AF00068711627138374C01E
:100B0000FC010D8101FB1EF413811064138368C086
:100B2000FC0103811B81161718F00068038358C06D
:060B30000F77038355C09E
:100B4000FC010B816003012D002311F467FD00956A
:060B50000F77038B45C086
:100B6000FC010B81069F00890395019D138A38C003
:0E0B8000FC010C8106030281010D028329C0D5
:100BA000FC010C8106030081000D00830181011D01
:040BB000018316C0E7
:100BC000FC010B81069F1394812D00811181089FE8
:100BD000712D189F070E121C001911090083118333
:100BE0008D916D91C82FC695C871C45A8295E82F12
:100BF000E07FE325F6E08C70782F845C0994000098
:100C0000FC010B81061710F06D9AEAC06D98E8C0E0
:100C2000FC0168710D8106FB4EF4138116271383B6
:0E0C3000178116271783138516271387D1C047
:100C4000FC010D8101FB4EF41381106413831781A5
:0C0C500010641783138510641387C2C062
:100C6000FC01E8940B81061708F06894038107F9EA
:100C70000383078107F90783038507F90387B0C05A
:100C8000FC010B8110891395019F138A1489139518
:0E0C9000019F178A108D1395019F138EA1C02E
:100CA000FC010B81069F1694138A178A138E98C035
:100CC000FC010C81C72FCC0FC4581C810102000C01
:100CD000111C17FC1A941F8203810062038380C0D9
:100CE000FC010D811381000F32F410F460FD1064DB
:080CF00068711627138374C01C
:100D0000FC010D8101FB1EF413811064138368C084
:100D2000FC0103811B81161718F00068038358C06B
:060D30000F77038355C09C
:100D4000FC010B816003012D002311F467FD009568
:060D50000F77038B45C084
:100D6000FC010B81069F00890395019D138A38C001
:0E0D8000FC010C8106030281010D028329C0D3
:100DA000FC010C8106030081000D00830181011DFF
:040DB000018316C0E5
:100DC000FC010B81069F1394812D00811181089FE6
:100DD000712D189F070E121C001911090083118331
:100DE0008D916D91C82FC695C871C45A8295E82F10
:100DF000E07FE325F7E08C70782F845C0994000095
:100E0000FC010B81061710F06D9AEAC06D98E8C0DE
:100E2000FC0168710D8106FB4EF4138116271383B4
:0E0E3000178116271783138516271387D1C045
:100E4000FC010D8101FB4EF41381106413831781A3
:0C0E500010641783138510641387C2C060
:100E6000FC01E8940B81061708F06894038107F9E8
:100E70000383078107F90783038507F90387B0C058
:100E8000FC010B8110891395019F138A1489139516
:0E0E9000019F178A108D1395019F138EA1C02C
:100EA000FC010B81069F1694138A178A138E98C033
:100EC000FC010C81C72FCC0FC4581C810102000CFF
:100ED000111C17FC1A941F8203810062038380C0D7
:100EE000FC010D811381000F32F410F460FD1064D9
:080EF00068711627138374C01A
:100F0000FC010D8101FB1EF413811064138368C082
:100F2000FC0103811B81161718F00068038358C069
:060F30000F77038355C09A
:100F4000FC010B816003012D002311F467FD009566
:060F50000F77038B45C082
:100F6000FC010B81069F00890395019D138A38C0FF
:0E0F8000FC010C8106030281010D028329C0D1
:100FA000FC010C8106030081000D00830181011DFD
:040FB000018316C0E3
:100FC000FC010B81069F1394812D00811181089FE4
:100FD000712D189F070E121C00191109008311832F
:100FE0008D916D91C82FC695C871C45A8295E82F0E
:100FF000E07FE325F8E08C70782F845C0994000092
:10100000FC010B81061710F06D9AEAC06D98E8C0DC
:10102000FC0168710D8106FB4EF4138116271383B2
:0E103000178116271783138516271387D1C043
:10104000FC010D8101FB4EF41381106413831781A1
:0C10500010641783138510641387C2C05E
:10106000FC01E8940B81061708F06894038107F9E6
:101070000383078107F90783038507F90387B0C056
:10108000FC010B8110891395019F138A1489139514
:0E109000019F178A108D1395019F138EA1C02A
:1010A000FC010B81069F1694138A178A138E98C031
:1010C000FC010C81C72FCC0FC4581C810102000CFD
:1010D000111C17FC1A941F8203810062038380C0D5
:1010E000FC010D811381000F32F410F460FD1064D7
:0810F00068711627138374C018
:10110000FC010D8101FB1EF413811064138368C080
:10112000FC0103811B81161718F00068038358C067
:061130000F77038355C098
:10114000FC010B816003012D002311F467FD009564
:061150000F77038B45C080
:10116000FC010B81069F00890395019D138A38C0FD
:0E118000FC010C8106030281010D028329C0CF
:1011A000FC010C8106030081000D00830181011DFB
:0411B000018316C0E1
:1011C000FC010B81069F1394812D00811181089FE2
:1011D000712D189F070E121C00191109008311832D
:1011E0008D916D91C82FC695C871C45A8295E82F0C
:1011F000E07FE325F9E08C70782F845C099400008F
:10120000FC010B81061710F06D9AEAC06D98E8C0DA
:10122000FC0168710D8106FB4EF4138116271383B0
:0E123000178116271783138516271387D1C041
:10124000FC010D8101FB4EF413811064138317819F
:0C12500010641783138510641387C2C05C
:10126000FC01E8940B81061708F06894038107F9E4
:101270000383078107F90783038507F90387B0C054
:10128000FC010B8110891395019F138A1489139512
:0E129000019F178A108D1395019F138EA1C028
:1012A000FC010B81069F1694138A178A138E98C02F
:1012C000FC010C81C72FCC0FC4581C810102000CFB
:1012D000111C17FC1A941F8203810062038380C0D3
:1012E000FC010D811381000F32F410F460FD1064D5
:0812F00068711627138374C016
:10130000FC010D8101FB1EF413811064138368C07E
:10132000FC0103811B81161718F00068038358C065
:061330000F77038355C096
:10134000FC010B816003012D002311F467FD009562
:061350000F77038B45C07E
:10136000FC010B81069F00890395019D138A38C0FB
:0E138000FC010C8106030281010D028329C0CD
:1013A000FC010C8106030081000D00830181011DF9
:0413B000018316C0DF
:1013C000FC010B81069F1394812D00811181089FE0
:1013D000712D189F070E121C00191109008311832B
:1013E00056FA00F904250695441C551C662444272A
:1013F000FFE7E0E0CCE52091317E2092317ED1A85C
:10140000D22A20A96A81F62ED694E380A8F17081B1
:101410008181E4FA46F00881070F08835981581F3B
:101420005983621D07C00881071B08835981580B27
:1014300059836040962F63706A83669557956695C9
:101440005795A281B9E75A1740F40C91059F112DC9
:10145000B3950C91059F100D0AC05A1BA0950C91D5
:10146000059F112DB3950C91059F100D1068DF019C
:10147000E381E07EFBE0099450E85E835527662710
:10148000FF2458836983D6CF00FFFFAAFF995549EF
:10149000FF38CCA2AAD82488FF871CBC6618D1903C
:1014A000551EECBD92694421FFE0C3A88E755E48CD
:1014B000331F0CFAE8D8C8B9AA9C8F82766A5E53AB
:1014C000493E342B22191008FFF8F0E9E1DAD4CDB7
:1014D000C7C0BAB4AFA9A49E99948F8A86817D783B
:1014E00074706C6864605C5855514E4A4744413E84
:1014F0003B3835322F2C292724211F1C1A1815138D
:10150000110E0C0A08060402FFFEFCFAF8F6F4F2CB
:10151000F0EFEDEBEAE8E6E5E3E1E0DEDDDBDAD98A
:10152000D7D6D4D3D2D0CFCECCCBCAC9C7C6C5C4E8
:10153000C3C1C0BFBEBDBCBBBAB9B8B7B6B5B4B302
:10154000B2B1B0AFAEADACABAAA9A8A8A7A6A5A4EE
:10155000A3A3A2A1A09F9F9E9D9C9C9B9A999998B2
:101560009797969594949392929190908F8F8E8D59
:101570008D8C8C8B8A8A89898887878686858584E5
:08158000848383828281818053
:08160000E12FF8E31491E2C0B0
:02164000C5C023
:08168000110F08F41095A2C03F
:0C16C00017FB16F01FEF82C0112780C03E
:08170000119F1127111D62C0A9
:0C174000092F0370F0124E821E8140C081
:08178000E12FFDE7108122C0FA
:1017C000E12FE695F8E314911058110FFD01AE2DAD
:1017D000A770BEE75C911523E3FC10955B81507800
:1017E00017FB97F9959559275D831B8310581C8328
:1017F000EC5FC85F6A81F62ED694E380A8F1708111
:101800008181E4FA46F00881070F08835981581F47
:101810005983621D07C00881071B08835981580B33
:1018200059836040962F63706A83669557956695D5
:101830005795A281B9E75A1740F40C91059F112DD5
:10184000B3950C91059F100D0AC05A1BA0950C91E1
:10185000059F112DB3950C91059F100D1068DF01A8
:10186000E381E07EFDE0099450E85E83552766271A
:10187000FF2458836983D6CF007F3F2A1F19151292
:101880000F0E0C0B0A0909080707070606060505CF
:10189000050504040404040403030303030303030E
:1018A0000303030202020202020202020202020215
:1018B0000202020202020202010101010101010110
:1018C0000101010101010101010101010101010108
:1018D00001010101010101010101010101010101F8
:1018E00001010101010101010101010101010101E8
:1018F00001010101010101010000000000000000E0
:1019000000000000000000000000000000000000D7
:1019100000000000000000000000000000000000C7
:1019200000000000000000000000000000000000B7
:1019300000000000000000000000000000000000A7
:101940000000000000000000000000000000000097
:101950000000000000000000000000000000000087
:101960000000000000000000000000000000000077
:0819700000000000000000006F
:081A0000E12FF8E31491E2C0AC
:021A4000C5C01F
:081A8000110F08F41095A2C03B
:0C1AC00017FB16F01FEF82C0112780C03A
:081B0000119F1127111D62C0A5
:0C1B4000092F0370F0124E821E8140C07D
:081B8000E12FFDE7108122C0F6
:101BC000E12FE695F8E314911058110FFD01AE2DA9
:101BD000A770BEE75C911523E3FC10955B815078FC
:101BE00017FB97F9959559275D831B8310581C8324
:101BF000EC5FC85F6A81F62ED694E380A8F170810D
:101C00008181E4FA46F00881070F08835981581F43
:101C10005983621D07C00881071B08835981580B2F
:101C200059836040962F63706A83669557956695D1
:101C30005795A281B9E75A1740F40C91059F112DD1
:101C4000B3950C91059F100D0AC05A1BA0950C91DD
:101C5000059F112DB3950C91059F100D1068DF01A4
:101C6000E381E07EFFE0099450E85E835527662714
:101C7000FF2458836983D6CF0000000000000000D5
:101C80000000B35D15D8A477502D0EF2D9C3AE9BDA
:101C90008A7A6C5E52463B31281F160E0700F9F215
:101CA000ECE7E1DCD7D2CDC9C5C1BDB9B6B2AFACA6
:101CB000A9A6A3A09D9B989694918F8D8B898785CB
:101CC0008381807E7C7B797776747372706F6E6CA3
:101CD0006B6A6968666564636261605F5E5D5C5BD8
:101CE0005B5A595857565655545353525150504FAA
:101CF0004E4E4D4D4C4B4B4A040404040404040462
:101D000004040303030202020202020101010101B1
:101D100001010101010101010101010101010000B5
:101D200000000000000000000000000000000000B3
:101D300000000000000000000000000000000000A3
:101D40000000000000000000000000000000000093
:101D50000000000000000000000000000000000083
:101D60000000000000000000000000000000000073
:081D700000000000000000006B
:081E0000E12FF8E31491E2C0A8
:021E4000C5C01B
:081E8000110F08F41095A2C037
:0C1EC00017FB16F01FEF82C0112780C036
:081F0000119F1127111D62C0A1
:0C1F4000092F0370F0124E821E8140C079
:081F8000E12FFDE7108122C0F2
:101FC000E12FE695F8E314911058110FFD01AE2DA5
:101FD000A770BEE75C911523E3FC10955B815078F8
:101FE00017FB97F9959559275D831B8310581C8320
:101FF000EC5FC85F6A81F62ED694E380A8F1708109
:102000008181E4FA46F00881070F08835981581F3F
:102010005983621D07C00881071B08835981580B2B
:1020200059836040962F63706A83669557956695CD
:102030005795A281B9E75A1740F40C91059F112DCD
:10204000B3950C91059F100D0AC05A1BA0950C91D9
:10205000059F112DB3950C91059F100D1068DF01A0
:10206000E381E07EF1E1099450E85E83552766271D
:10207000FF2458836983D6CF0000800000008000D1
:102080000000800000008000000080000000800050
:10209000000080000000800000007FF000007FF062
:1020A00000007FF000007FF0F00000000000000062
:0420B000000000002C
:08220000E12FF8E31491E2C0A4
:02224000C5C017
:08228000110F08F41095A2C033
:0C22C00017FB16F01FEF82C0112780C032
:08230000119F1127111D62C09D
:0C234000092F0370F0124E821E8140C075
:08238000E12FFDE7108122C0EE
:1023C000E12FE695F8E314911058110FFD01AE2DA1
:1023D000A770BEE75C911523E3FC10955B815078F4
:1023E00017FB97F9959559275D831B8310581C831C
:1023F000EC5FC85F6A81F62ED694E7A4E6FAB6F1E0
:10240000A8F174A585A5E4FA46F00881070F0883B2
:102410005981581F5983621D07C00881071B088313
:102420005981580B59836040962F63706A83669573
:10243000579566955795A6A5B9E75A1740F40C919C
:10244000059F112DB3950C91059F100D0AC05A1BC5
:10245000A0950C91059F112DB3950C91059F100D22
:102460001068DF01E381E07EF3E1099450E85E83C8
:1024700055276627FF2458836983D6CFA23780B6B5
:1024800080C780FF80000000000000000000000006
:10249000000000000000000000000000000000003C
:0224A00000003A
:08260000E12FF8E31491E2C0A0
:02264000C5C013
:08268000110F08F41095A2C02F
:0C26C00017FB16F01FEF82C0112780C02E
:08270000119F1127111D62C099
:0C274000092F0370F0124E821E8140C071
:08278000E12FFDE7108122C0EA
:1027C000E12FE695F8E314911058110FFD01AE2D9D
:1027D000A770BEE75C911523E3FC10955B815078F0
:1027E00017FB97F9959559275D831B8310581C8318
:1027F0002695D0F4E5FC1F8107AD1003B0010389D5
:1028000002950F700395609FC0017003900D121C1C
:102810001294929582958F70092F0321802B9F70BF
:1028200013209129680E491FEC5FC85F6A81F62E5C
:10283000D694E7A4E6FAB6F1A8F174A585A5E4FA62
:1028400046F00881070F08835981581F5983621D7C
:1028500007C00881071B08835981580B59836040C2
:10286000962F63706A836695579566955795A6A5CA
:10287000B9E75A1740F40C91059F112DB3950C91AF
:10288000059F100D0AC05A1BA0950C91059F112D94
:10289000B3950C91059F100D1068DF01E381E07E78
:1028A000F5E1099450E85E8355276627FF24588395
:0C28B0006983D6CFFFFEFCF8F0E0C0808A
:082A0000E12FF8E31491E2C09C
:022A4000C5C00F
:082A8000110F08F41095A2C02B
:0C2AC00017FB16F01FEF82C0112780C02A
:082B0000119F1127111D62C095
:0C2B4000092F0370F0124E821E8140C06D
:082B8000E12FFDE7108122C0E6
:102BC000E12FE695F8E314911058110FFD01AE2D99
:102BD000A770BEE75C911523E3FC10955B815078EC
:102BE00017FB97F9959559275D831B8310581C8314
:102BF0002695D0F4E5FC1F8107AD1003B0010389D1
:102C000002950F700395609FC0017003900D121C18
:102C10001294929582958F70092F0321802B9F70BB
:102C200013209129680E491FEC5FC85F6A81F62E58
:102C3000D694E7A4E6FAB6F1A8F174A585A5E4FA5E
:102C400046F00881070F08835981581F5983621D78
:102C500007C00881071B08835981580B59836040BE
:102C6000962F63706A836695579566955795A6A5C6
:102C7000B9E75A1740F40C91059F112DB3950C91AB
:102C8000059F100D0AC05A1BA0950C91059F112D90
:102C9000B3950C91059F100D1068DF01E381E07E74
:102CA000F7E1099450E85E8355276627FF2458838F
:042CB0006983D6CF8F
:082E0000E12FF8E31491E2C098
:022E4000C5C00B
:082E8000110F08F41095A2C027
:0C2EC00017FB16F01FEF82C0112780C026
:082F0000119F1127111D62C091
:0C2F4000092F0370F0124E821E8140C069
:082F8000E12FFDE7108122C0E2
:102FC000E12FE695F8E314911058110FFD01AE2D95
:102FD000A770BEE75C911523E3FC10955B815078E8
:102FE00017FB97F9959559275D831B8310581C8310
:102FF0002695D0F4E5FC1F8107AD1003B0010389CD
:1030000002950F700395609FC0017003900D121C14
:103010001294929582958F70092F0321802B9F70B7
:1030200013209129680E491FEC5FC85F6A81F62E54
:10303000D694E7A4E6FAB6F1A8F174A585A5E4FA5A
:1030400046F00881070F08835981581F5983621D74
:1030500007C00881071B08835981580B59836040BA
:10306000962F63706A836695579566955795A6A5C2
:10307000B9E75A1740F40C91059F112DB3950C91A7
:10308000059F100D0AC05A1BA0950C91059F112D8C
:10309000B3950C91059F100D1068DF01E381E07E70
:1030A000F9E1099450E85E8355276627FF24588389
:0430B0006983D6CF8B
:08320000E12FF8E31491E2C094
:02324000C5C007
:08328000110F08F41095A2C023
:0C32C00017FB16F01FEF82C0112780C022
:08330000119F1127111D62C08D
:0C334000092F0370F0124E821E8140C065
:08338000E12FFDE7108122C0DE
:1033C000E12FE695F8E314911058110FFD01AE2D91
:1033D000A770BEE75C911523E3FC10955B815078E4
:1033E00017FB97F9959559275D831B8310581C830C
:1033F0002695D0F4E5FC1F8107AD1003B0010389C9
:1034000002950F700395609FC0017003900D121C10
:103410001294929582958F70092F0321802B9F70B3
:1034200013209129680E491FF8940091200A1091E9
:10343000210A153030F1C9E0D9E018811F731883D3
:1034400029AED395C9837394A72DBCE71C9101279E
:103450000695789400F4FAF72395629E612D420355
:10346000712D600D721D7C5F7695679576956795D9
:103470007795679577957093A2066093A3060C9451
:10348000360478940095069506950A95F2F7CCCF08
:10349000C8E0DEE7FE9906C0FE9AFA9804E30E87BC
:1034A0006C9A15C0FD9902C0FD9AB0C00B85FA9BBD
:1034B000DBC0FA98F99BD5C00D3F30F041F00F3FCB
:1034C000A1F1FB9B0BC02F86FFE70C94DB04EE857C
:1034D000FF27E050F74C04910F87C3C0EE85EE0F35
:1034E000FBE305911B81019F0A8A1B8AA4E1BFE7C8
:1034F0000D911D91001A110A159407942D852550E0
:1035000010F0159407940E8E1F8E8FE704911C8186
:10351000000F019F17FC182E198EA65C0D91101A32
:10352000159427FF15941BA29CC0EE85EE0FFDE3BA
:1035300005911F81019F0E8A1F8A8FE704911885CC
:10354000000F019F17FC182E1B8EFC99FB9A89C057
:10355000EE85EE0FFAE305911981019F088A198A19
:10356000A0E1BFE70D911D91001A110A159407946F
:103570002D85255010F0159407940C8E1D8E8FE725
:1035800004911A81000F019F17FC182E188EA65C5B
:103590000C91101A159427FF15941AA262C0EE859B
:1035A000EE0FFCE305911D81019F0C8A1D8AA8E1A5
:1035B000BFE70D911D91001A110A2D8515940794EE
:1035C000255010F01594079408A219A28FE70491D2
:1035D0001E81000F019F17FC182E1A8EA65C0D91FC
:1035E000101A159425FF15941CA23BC06C982FBA95
:1035F000208A218A248A258A208E218E248E258E57
:1036000030C0F9980A850A950A8749F5E0E0FFE796
:103610000F85002359F30889008B0989018B0A89DA
:10362000048B0B89058B0C89008F0D89018F0E8906
:10363000048F0F89058FECE4FFE7088D0083038377
:10364000098D048307830A8D008703870B8D048708
:1036500007870E850C870F850D870A87F99A0881E1
:103660000B87FFE70C94DB04FA9A0B8503950B8715
:1036700041F2F99947C00E3FE8F00A851D85F1F047
:103680001330C0F0025029F0AAF0153098F0033042
:1036900088F4ECE4FFE710801AA1110E1082138267
:1036A00014801BA1110E1482178210841CA1110E0C
:1036B00010861386DFE7FFE70C94DB041330D0F3AA
:1036C000025029F0BAF31630A8F3033098F7E0E07F
:1036D000FFE700891C8D010F008B01891D8D011FE3
:1036E000018B04891E8D010F048B05891F8D011F1D
:1036F000058B008D18A1010F008F018D19A1011FED
:10370000018FAFCF0D3FB0F219F000FF21CF47CFAF
:103710000E850034B8F4083318F0065F0E87A1CF89
:103720000A3228F0043370F4025F0E879ACF083013
:1037300048F4023020F0017002610E8792CF01E15F
:103740000E878FCFA985AC1528F4B8E70D910E87A9
:0C375000A98787CFFC9A04E30E8783CF83
:10380000808386898C909396999C9FA2A5A8ABAE45
:10381000B1B3B6B9BCBFC1C4C7C9CCCED1D3D5D85A
:10382000DADCDEE0E2E4E6E8EAEBEDEFF0F1F3F417
:10383000F5F6F8F9FAFAFBFCFDFDFEFEFEFFFFFFD0
:10384000FFFFFFFFFEFEFEFDFDFCFBFAFAF9F8F6B6
:10385000F5F4F3F1F0EFEDEBEAE8E6E4E2E0DEDCCC
:10386000DAD8D5D3D1CECCC9C7C4C1BFBCB9B6B3E1
:10387000B1AEABA8A5A29F9C999693908C898683A4
:10388000807D7A7774706D6A6764615E5B585552AB
:103890004F4D4A4744413F3C393734322F2D2B2876
:1038A000262422201E1C1A1816151311100F0D0C99
:1038B0000B0A0807060605040303020202010101C0
:1038C0000101010102020203030405060607080ABA
:1038D0000B0C0D0F1011131516181A1C1E20222484
:1038E00026282B2D2F323437393C3F4144474A4D4F
:1038F0004F5255585B5E6164676A6D7074777A7D6C
:103900000C0C0C080C080C08080B0808080C0B061B
:10391000090A08050A0A0807060608060707080430
:1039200006070A0609080906080706060405080628
:103930000606080602060C18010102010201010137
:0A3940000306040202010202040261
:103A00008A7FC77F8A6F4C5FC77F4C5F997F4C5F0F
:103A1000B77FC77F4C5F8A6F4C5F997F8A4FA87FC3
:103A20005C5F7A7F6B5F994F2E002E002E003D4722
:103A300045474C472E004C472E4F2E2F4C5F000021
:103A400000008A4F8A5F6B5F7A5F4C5F4C5F3D5F1F
:103A50005C5F6B6F2E002E172E002E172E002E1778
:103A60002E002E0F2E0F2E0091009100910091003C
:103A70002E002E0F2E002E172E002E0F4C4F2E171D
:103A800026472E002E002E002E002E002E002E0087
:043A90004C002E00B8
:103B0000454F615FA66FC237585FC237454FC23716
:103B10008F6F5C5FC237985FC237454F6F47654F05
:103B20004E275347A647652FA800B6003C005C17F8
:103B30007617981F98006C176A177D2FC237000000
:103B400000007337734F4527532737273727BD3773
:103B500041279D4FC2003C00980098003C003C006B
:103B6000FB00FE009800B6009A009A009A009A00A6
:103B7000C2373C0F9800980F3C003C0FC637FE0F31
:103B8000B61FB600C2003C00980098003C003C0004
:043B9000FB00FE0038
:103C0000B900B90FBE2FE827B90FE827B900E82798
:103C1000B927BC0FE827C027E827B900831FB70FD3
:103C2000AD00AD0FC427BC00D100DF00AB00A00089
:103C3000C400D90FFF00C400AB00FF00E82700005C
:103C400000007E1F831FE80FE80FBE00BE00E827BC
:103C5000A900C427C600C600FF00BE00AB00AB0031
:103C6000D500EC00FF00D500C000C000C000C000BF
:103C7000C61FC600FF00FF00AB00FF00D527E8000D
:103C8000D50FD500C600C600FF00FF00AB00000046
:043C9000EC00E8005C
:103D000000000000000000000000000000000000B3
:103D100000000000000000000000000000000000A3
:103D20000000000000000000FF37FF677727FF1743
:103D3000FF1FFF37BB27BB17000000000000442710
:103D4000222700000000000000000000000000002A
:103D50000000000000000000000000000000000063
:103D60000000000000000000000000000000000053
:103D70000000000077270000772700000000000007
:103D8000FF37FF6700000000000000000000000097
:103D90000000000008ED0093340009EA0093800061
:103DA000009165000071E1F308ED0093340003E039
:103DB00000936000009165000170E1F7222400EF9C
:103DC000302E05E00093B20001E40093A0060FEA54
:103DD0000093260A05E00093270A20920A0A01E0D0
:103DE0000093000A20B821B828B829B82CB82DB8FB
:103DF00024BA25BA04E000930B0400934B0400930B
:103E00006B040093AB0408E00093B60400EB00934E
:103E1000610400E80093650405E000935000B69B40
:103E200007C006E00093E50501E00093400919C0D2
:103E3000A0E0B4E15D916D9105E50527061721F439
:103E40007C910AEA052707135AE0550F50930C0995
:103E500002E00093E60502E00093000903E000930E
:103E6000090904E00093B604E8E8F4E1C0E0D9E70A
:103E700005910993CC23E1F7E8E7F8E1C0E0DAE740
:103E800005910993CC23E1F7E8E7FCE1C0E0DBE72B
:103E900005910993CC23E1F7E4EBF8E2C0E0DEE71B
:103EA00005910993C830E0F3E8E7F0E2C4ECDEE7FF
:103EB00005910CAF0993CC23D9F7ECE7F4E2C8E005
:103EC000DEE715E2059109931A95E1F7AA27BCE709
:103ED00018E80A2F0F710C3119F0077009F0116002
:103EE0001C93A395A9F7C0E0D8E72882C395E9F70A
:103EF0000EEF402E0395502E2DBA2EBA2FBA322D2A
:0C3F0000C22C00E20CBBFFE70C9436045E
:00000001FF
